19:34:32.398773 IP 172.16.1.129.52899 > 172.16.1.2.53: 11746+ A? detectportal.firefox.com. (42)
	0x0000:  4500 0046 465c 4000 4011 99a7 ac10 0181  E..FF\@.@.......
	0x0010:  ac10 0102 cea3 0035 0032 5ae7 2de2 0100  .......5.2Z.-...
	0x0020:  0001 0000 0000 0000 0c64 6574 6563 7470  .........detectp
	0x0030:  6f72 7461 6c07 6669 7265 666f 7803 636f  ortal.firefox.co
	0x0040:  6d00 0001 0001                           m.....
19:34:32.398890 IP 172.16.1.129.52899 > 172.16.1.2.53: 17981+ AAAA? detectportal.firefox.com. (42)
	0x0000:  4500 0046 465d 4000 4011 99a6 ac10 0181  E..FF]@.@.......
	0x0010:  ac10 0102 cea3 0035 0032 5ae7 463d 0100  .......5.2Z.F=..
	0x0020:  0001 0000 0000 0000 0c64 6574 6563 7470  .........detectp
	0x0030:  6f72 7461 6c07 6669 7265 666f 7803 636f  ortal.firefox.co
	0x0040:  6d00 001c 0001                           m.....
19:34:32.408067 IP 172.16.1.2.53 > 172.16.1.129.52899: 11746 5/0/0 CNAME detectportal.prod.mozaws.net., CNAME detectportal.firefox.com-v2.edgesuite.net., CNAME a1089.dscd.akamai.net., A 203.74.140.168, A 203.74.140.210 (200)
	0x0000:  4500 00e4 7f6a 0000 8011 5ffb ac10 0102  E....j...._.....
	0x0010:  ac10 0181 0035 cea3 00d0 a176 2de2 8180  .....5.....v-...
	0x0020:  0001 0005 0000 0000 0c64 6574 6563 7470  .........detectp
	0x0030:  6f72 7461 6c07 6669 7265 666f 7803 636f  ortal.firefox.co
	0x0040:  6d00 0001 0001 c00c 0005 0001 0000 0005  m...............
	0x0050:  001e 0c64 6574 6563 7470 6f72 7461 6c04  ...detectportal.
	0x0060:  7072 6f64 066d 6f7a 6177 7303 6e65 7400  prod.mozaws.net.
	0x0070:  c036 0005 0001 0000 0005 0028 0c64 6574  .6.........(.det
	0x0080:  6563 7470 6f72 7461 6c07 6669 7265 666f  ectportal.firefo
	0x0090:  7806 636f 6d2d 7632 0965 6467 6573 7569  x.com-v2.edgesui
	0x00a0:  7465 c04f c060 0005 0001 0000 0005 0014  te.O.`..........
	0x00b0:  0561 3130 3839 0464 7363 6406 616b 616d  .a1089.dscd.akam
	0x00c0:  6169 c04f c094 0001 0001 0000 0005 0004  ai.O............
	0x00d0:  cb4a 8ca8 c094 0001 0001 0000 0005 0004  .J..............
	0x00e0:  cb4a 8cd2                                .J..
19:34:32.444925 IP 172.16.1.2.53 > 172.16.1.129.52899: 17981 5/0/0 CNAME detectportal.prod.mozaws.net., CNAME detectportal.firefox.com-v2.edgesuite.net., CNAME a1089.dscd.akamai.net., AAAA 2600:1417:1b::cb45:8d08, AAAA 2600:1417:1b::cb45:8d4a (224)
	0x0000:  4500 00fc 7f6b 0000 8011 5fe2 ac10 0102  E....k...._.....
	0x0010:  ac10 0181 0035 cea3 00e8 1350 463d 8180  .....5.....PF=..
	0x0020:  0001 0005 0000 0000 0c64 6574 6563 7470  .........detectp
	0x0030:  6f72 7461 6c07 6669 7265 666f 7803 636f  ortal.firefox.co
	0x0040:  6d00 001c 0001 c00c 0005 0001 0000 0005  m...............
	0x0050:  001e 0c64 6574 6563 7470 6f72 7461 6c04  ...detectportal.
	0x0060:  7072 6f64 066d 6f7a 6177 7303 6e65 7400  prod.mozaws.net.
	0x0070:  c036 0005 0001 0000 0005 0028 0c64 6574  .6.........(.det
	0x0080:  6563 7470 6f72 7461 6c07 6669 7265 666f  ectportal.firefo
	0x0090:  7806 636f 6d2d 7632 0965 6467 6573 7569  x.com-v2.edgesui
	0x00a0:  7465 c04f c060 0005 0001 0000 0005 0014  te.O.`..........
	0x00b0:  0561 3130 3839 0464 7363 6406 616b 616d  .a1089.dscd.akam
	0x00c0:  6169 c04f c094 001c 0001 0000 0005 0010  ai.O............
	0x00d0:  2600 1417 001b 0000 0000 0000 cb45 8d08  &............E..
	0x00e0:  c094 001c 0001 0000 0005 0010 2600 1417  ............&...
	0x00f0:  001b 0000 0000 0000 cb45 8d4a            .........E.J
19:34:32.445468 IP 172.16.1.129.48848 > 203.74.140.168.80: Flags [S], seq 2292942746, win 29200, options [mss 1460,sackOK,TS val 3492558715 ecr 0,nop,wscale 7], length 0
	0x0000:  4500 003c b6b4 4000 4006 7e83 ac10 0181  E..<..@.@.~.....
	0x0010:  cb4a 8ca8 bed0 0050 88ab 879a 0000 0000  .J.....P........
	0x0020:  a002 7210 05b3 0000 0204 05b4 0402 080a  ..r.............
	0x0030:  d02c 377b 0000 0000 0103 0307            .,7{........
19:34:32.448725 IP 203.74.140.168.80 > 172.16.1.129.48848: Flags [S.], seq 1645425326, ack 2292942747, win 64240, options [mss 1460], length 0
	0x0000:  4500 002c 7f6c 0000 8006 b5db cb4a 8ca8  E..,.l.......J..
	0x0010:  ac10 0181 0050 b